{
  "address": "0x430024D58a958fa648A6047aBBb9e7BB60D45943",
  "abi": [
    {
      "inputs": [
        {
          "internalType": "string",
          "name": "lowSVG",
          "type": "string"
        },
        {
          "internalType": "string",
          "name": "highSVG",
          "type": "string"
        },
        {
          "internalType": "address",
          "name": "priceFeedAddress",
          "type": "address"
        }
      ],
      "stateMutability": "nonpayable",
      "type": "constructor"
    },
    {
      "anonymous": false,
      "inputs": [
        {
          "indexed": true,
          "internalType": "address",
          "name": "owner",
          "type": "address"
        },
        {
          "indexed": true,
          "internalType": "address",
          "name": "approved",
          "type": "address"
        },
        {
          "indexed": true,
          "internalType": "uint256",
          "name": "tokenId",
          "type": "uint256"
        }
      ],
      "name": "Approval",
      "type": "event"
    },
    {
      "anonymous": false,
      "inputs": [
        {
          "indexed": true,
          "internalType": "address",
          "name": "owner",
          "type": "address"
        },
        {
          "indexed": true,
          "internalType": "address",
          "name": "operator",
          "type": "address"
        },
        {
          "indexed": false,
          "internalType": "bool",
          "name": "approved",
          "type": "bool"
        }
      ],
      "name": "ApprovalForAll",
      "type": "event"
    },
    {
      "anonymous": false,
      "inputs": [
        {
          "indexed": true,
          "internalType": "uint256",
          "name": "tokenId",
          "type": "uint256"
        },
        {
          "indexed": false,
          "internalType": "int256",
          "name": "highValue",
          "type": "int256"
        }
      ],
      "name": "CreatedNFT",
      "type": "event"
    },
    {
      "anonymous": false,
      "inputs": [
        {
          "indexed": true,
          "internalType": "address",
          "name": "from",
          "type": "address"
        },
        {
          "indexed": true,
          "internalType": "address",
          "name": "to",
          "type": "address"
        },
        {
          "indexed": true,
          "internalType": "uint256",
          "name": "tokenId",
          "type": "uint256"
        }
      ],
      "name": "Transfer",
      "type": "event"
    },
    {
      "inputs": [
        {
          "internalType": "address",
          "name": "to",
          "type": "address"
        },
        {
          "internalType": "uint256",
          "name": "tokenId",
          "type": "uint256"
        }
      ],
      "name": "approve",
      "outputs": [],
      "stateMutability": "nonpayable",
      "type": "function"
    },
    {
      "inputs": [
        {
          "internalType": "address",
          "name": "owner",
          "type": "address"
        }
      ],
      "name": "balanceOf",
      "outputs": [
        {
          "internalType": "uint256",
          "name": "",
          "type": "uint256"
        }
      ],
      "stateMutability": "view",
      "type": "function"
    },
    {
      "inputs": [
        {
          "internalType": "uint256",
          "name": "tokenId",
          "type": "uint256"
        }
      ],
      "name": "getApproved",
      "outputs": [
        {
          "internalType": "address",
          "name": "",
          "type": "address"
        }
      ],
      "stateMutability": "view",
      "type": "function"
    },
    {
      "inputs": [
        {
          "internalType": "address",
          "name": "owner",
          "type": "address"
        },
        {
          "internalType": "address",
          "name": "operator",
          "type": "address"
        }
      ],
      "name": "isApprovedForAll",
      "outputs": [
        {
          "internalType": "bool",
          "name": "",
          "type": "bool"
        }
      ],
      "stateMutability": "view",
      "type": "function"
    },
    {
      "inputs": [
        {
          "internalType": "int256",
          "name": "highValue",
          "type": "int256"
        }
      ],
      "name": "mintNFT",
      "outputs": [],
      "stateMutability": "nonpayable",
      "type": "function"
    },
    {
      "inputs": [],
      "name": "name",
      "outputs": [
        {
          "internalType": "string",
          "name": "",
          "type": "string"
        }
      ],
      "stateMutability": "view",
      "type": "function"
    },
    {
      "inputs": [
        {
          "internalType": "uint256",
          "name": "tokenId",
          "type": "uint256"
        }
      ],
      "name": "ownerOf",
      "outputs": [
        {
          "internalType": "address",
          "name": "",
          "type": "address"
        }
      ],
      "stateMutability": "view",
      "type": "function"
    },
    {
      "inputs": [
        {
          "internalType": "uint256",
          "name": "",
          "type": "uint256"
        }
      ],
      "name": "s_tokenIdToHighValue",
      "outputs": [
        {
          "internalType": "int256",
          "name": "",
          "type": "int256"
        }
      ],
      "stateMutability": "view",
      "type": "function"
    },
    {
      "inputs": [
        {
          "internalType": "address",
          "name": "from",
          "type": "address"
        },
        {
          "internalType": "address",
          "name": "to",
          "type": "address"
        },
        {
          "internalType": "uint256",
          "name": "tokenId",
          "type": "uint256"
        }
      ],
      "name": "safeTransferFrom",
      "outputs": [],
      "stateMutability": "nonpayable",
      "type": "function"
    },
    {
      "inputs": [
        {
          "internalType": "address",
          "name": "from",
          "type": "address"
        },
        {
          "internalType": "address",
          "name": "to",
          "type": "address"
        },
        {
          "internalType": "uint256",
          "name": "tokenId",
          "type": "uint256"
        },
        {
          "internalType": "bytes",
          "name": "data",
          "type": "bytes"
        }
      ],
      "name": "safeTransferFrom",
      "outputs": [],
      "stateMutability": "nonpayable",
      "type": "function"
    },
    {
      "inputs": [
        {
          "internalType": "address",
          "name": "operator",
          "type": "address"
        },
        {
          "internalType": "bool",
          "name": "approved",
          "type": "bool"
        }
      ],
      "name": "setApprovalForAll",
      "outputs": [],
      "stateMutability": "nonpayable",
      "type": "function"
    },
    {
      "inputs": [
        {
          "internalType": "bytes4",
          "name": "interfaceId",
          "type": "bytes4"
        }
      ],
      "name": "supportsInterface",
      "outputs": [
        {
          "internalType": "bool",
          "name": "",
          "type": "bool"
        }
      ],
      "stateMutability": "view",
      "type": "function"
    },
    {
      "inputs": [
        {
          "internalType": "string",
          "name": "svg",
          "type": "string"
        }
      ],
      "name": "svgToImageURI",
      "outputs": [
        {
          "internalType": "string",
          "name": "",
          "type": "string"
        }
      ],
      "stateMutability": "pure",
      "type": "function"
    },
    {
      "inputs": [],
      "name": "symbol",
      "outputs": [
        {
          "internalType": "string",
          "name": "",
          "type": "string"
        }
      ],
      "stateMutability": "view",
      "type": "function"
    },
    {
      "inputs": [
        {
          "internalType": "uint256",
          "name": "tokenId",
          "type": "uint256"
        }
      ],
      "name": "tokenURI",
      "outputs": [
        {
          "internalType": "string",
          "name": "",
          "type": "string"
        }
      ],
      "stateMutability": "view",
      "type": "function"
    },
    {
      "inputs": [
        {
          "internalType": "address",
          "name": "from",
          "type": "address"
        },
        {
          "internalType": "address",
          "name": "to",
          "type": "address"
        },
        {
          "internalType": "uint256",
          "name": "tokenId",
          "type": "uint256"
        }
      ],
      "name": "transferFrom",
      "outputs": [],
      "stateMutability": "nonpayable",
      "type": "function"
    }
  ],
  "transactionHash": "0xbc1e6417bee9d8ad8744601f18b2195748e9d26443a94780c7ad584b504fc85d",
  "args": [
    "<?xml version=\"1.0\" standalone=\"no\"?>\n<svg width=\"1024px\" height=\"1024px\" viewBox=\"0 0 1024 1024\" xmlns=\"http://www.w3.org/2000/svg\">\n  <path fill=\"#333\" d=\"M512 64C264.6 64 64 264.6 64 512s200.6 448 448 448 448-200.6 448-448S759.4 64 512 64zm0 820c-205.4 0-372-166.6-372-372s166.6-372 372-372 372 166.6 372 372-166.6 372-372 372z\"/>\n  <path fill=\"#E6E6E6\" d=\"M512 140c-205.4 0-372 166.6-372 372s166.6 372 372 372 372-166.6 372-372-166.6-372-372-372zM288 421a48.01 48.01 0 0 1 96 0 48.01 48.01 0 0 1-96 0zm376 272h-48.1c-4.2 0-7.8-3.2-8.1-7.4C604 636.1 562.5 597 512 597s-92.1 39.1-95.8 88.6c-.3 4.2-3.9 7.4-8.1 7.4H360a8 8 0 0 1-8-8.4c4.4-84.3 74.5-151.6 160-151.6s155.6 67.3 160 151.6a8 8 0 0 1-8 8.4zm24-224a48.01 48.01 0 0 1 0-96 48.01 48.01 0 0 1 0 96z\"/>\n  <path fill=\"#333\" d=\"M288 421a48 48 0 1 0 96 0 48 48 0 1 0-96 0zm224 112c-85.5 0-155.6 67.3-160 151.6a8 8 0 0 0 8 8.4h48.1c4.2 0 7.8-3.2 8.1-7.4 3.7-49.5 45.3-88.6 95.8-88.6s92 39.1 95.8 88.6c.3 4.2 3.9 7.4 8.1 7.4H664a8 8 0 0 0 8-8.4C667.6 600.3 597.5 533 512 533zm128-112a48 48 0 1 0 96 0 48 48 0 1 0-96 0z\"/>\n</svg>\n",
    "<svg viewBox=\"0 0 200 200\" width=\"400\"  height=\"400\" xmlns=\"http://www.w3.org/2000/svg\">\n  <circle cx=\"100\" cy=\"100\" fill=\"yellow\" r=\"78\" stroke=\"black\" stroke-width=\"3\"/>\n  <g class=\"eyes\">\n    <circle cx=\"61\" cy=\"82\" r=\"12\"/>\n    <circle cx=\"127\" cy=\"82\" r=\"12\"/>\n  </g>\n  <path d=\"m136.81 116.53c.69 26.17-64.11 42-81.52-.73\" style=\"fill:none; stroke: black; stroke-width: 3;\"/>\n</svg>",
    "0xD4a33860578De61DBAbDc8BFdb98FD742fA7028e"
  ],
  "numDeployments": 2,
  "solcInputHash": "f3c041052bf7302061a49991bc5a8a55",
  "bytecode": "0x60a06040523480156200001157600080fd5b50604051620035f6380380620035f68339818101604052810190620000379190620004da565b6040518060400160405280600f81526020017f44796e616d696320535647204e465400000000000000000000000000000000008152506040518060400160405280600381526020017f44534e00000000000000000000000000000000000000000000000000000000008152508160009080519060200190620000bb92919062000395565b508060019080519060200190620000d492919062000395565b505050620000e8836200016960201b60201c565b60079080519060200190620000ff92919062000395565b5062000111826200016960201b60201c565b600890805190602001906200012892919062000395565b508073ffffffffffffffffffffffffffffffffffffffff1660808173ffffffffffffffffffffffffffffffffffffffff1660601b8152505050505062000932565b60606000620001a483604051602001620001849190620005ab565b6040516020818303038152906040526200020760201b62000d2f1760201c565b90506040518060400160405280601a81526020017f646174613a696d6167652f7376672b786d6c3b6261736536342c00000000000081525081604051602001620001f0929190620005c4565b604051602081830303815290604052915050919050565b60606000825114156200022c5760405180602001604052806000815250905062000390565b6000604051806060016040528060408152602001620035b660409139905060006003600285516200025e919062000661565b6200026a9190620006be565b6004620002789190620006f6565b905060006020826200028b919062000661565b67ffffffffffffffff811115620002a757620002a6620008c4565b5b6040519080825280601f01601f191660200182016040528015620002da5781602001600182028036833780820191505090505b509050818152600183018586518101602084015b818310156200034b576003830192508251603f8160121c168501518253600182019150603f81600c1c168501518253600182019150603f8160061c168501518253600182019150603f8116850151825360018201915050620002ee565b600389510660018114620003685760028114620003795762000384565b613d3d60f01b600283035262000384565b603d60f81b60018303525b50505050508093505050505b919050565b828054620003a390620007cb565b90600052602060002090601f016020900481019282620003c7576000855562000413565b82601f10620003e257805160ff191683800117855562000413565b8280016001018555821562000413579182015b8281111562000412578251825591602001919060010190620003f5565b5b50905062000422919062000426565b5090565b5b808211156200044157600081600090555060010162000427565b5090565b60006200045c620004568462000615565b620005ec565b9050828152602081018484840111156200047b576200047a620008f8565b5b6200048884828562000795565b509392505050565b600081519050620004a18162000918565b92915050565b600082601f830112620004bf57620004be620008f3565b5b8151620004d184826020860162000445565b91505092915050565b600080600060608486031215620004f657620004f562000902565b5b600084015167ffffffffffffffff811115620005175762000516620008fd565b5b6200052586828701620004a7565b935050602084015167ffffffffffffffff811115620005495762000548620008fd565b5b6200055786828701620004a7565b92505060406200056a8682870162000490565b9150509250925092565b600062000581826200064b565b6200058d818562000656565b93506200059f81856020860162000795565b80840191505092915050565b6000620005b9828462000574565b915081905092915050565b6000620005d2828562000574565b9150620005e0828462000574565b91508190509392505050565b6000620005f86200060b565b905062000606828262000801565b919050565b6000604051905090565b600067ffffffffffffffff821115620006335762000632620008c4565b5b6200063e8262000907565b9050602081019050919050565b600081519050919050565b600081905092915050565b60006200066e826200078b565b91506200067b836200078b565b9250827fffffffffffffffffffffffffffffffffffffffffffffffffffffffffffffffff03821115620006b357620006b262000837565b5b828201905092915050565b6000620006cb826200078b565b9150620006d8836200078b565b925082620006eb57620006ea62000866565b5b828204905092915050565b600062000703826200078b565b915062000710836200078b565b9250817fffffffffffffffffffffffffffffffffffffffffffffffffffffffffffffffff04831182151516156200074c576200074b62000837565b5b828202905092915050565b600062000764826200076b565b9050919050565b600073ffffffffffffffffffffffffffffffffffffffff82169050919050565b6000819050919050565b60005b83811015620007b557808201518184015260208101905062000798565b83811115620007c5576000848401525b50505050565b60006002820490506001821680620007e457607f821691505b60208210811415620007fb57620007fa62000895565b5b50919050565b6200080c8262000907565b810181811067ffffffffffffffff821117156200082e576200082d620008c4565b5b80604052505050565b7f4e487b7100000000000000000000000000000000000000000000000000000000600052601160045260246000fd5b7f4e487b7100000000000000000000000000000000000000000000000000000000600052601260045260246000fd5b7f4e487b7100000000000000000000000000000000000000000000000000000000600052602260045260246000fd5b7f4e487b7100000000000000000000000000000000000000000000000000000000600052604160045260246000fd5b600080fd5b600080fd5b600080fd5b600080fd5b6000601f19601f8301169050919050565b620009238162000757565b81146200092f57600080fd5b50565b60805160601c612c656200095160003960006109cb0152612c656000f3fe608060405234801561001057600080fd5b50600436106101005760003560e01c806370a0823111610097578063c87b56dd11610066578063c87b56dd146102bd578063e2ed50cb146102ed578063e425aded14610309578063e985e9c51461033957610100565b806370a082311461023757806395d89b4114610267578063a22cb46514610285578063b88d4fde146102a157610100565b806323b872dd116100d357806323b872dd1461019f57806330d871c6146101bb57806342842e0e146101eb5780636352211e1461020757610100565b806301ffc9a71461010557806306fdde0314610135578063081812fc14610153578063095ea7b314610183575b600080fd5b61011f600480360381019061011a9190611d03565b610369565b60405161012c919061222b565b60405180910390f35b61013d61044b565b60405161014a9190612261565b60405180910390f35b61016d60048036038101906101689190611dd3565b6104dd565b60405161017a91906121c4565b60405180910390f35b61019d60048036038101906101989190611cc3565b610523565b005b6101b960048036038101906101b49190611bad565b61063b565b005b6101d560048036038101906101d09190611d8a565b61069b565b6040516101e29190612261565b60405180910390f35b61020560048036038101906102009190611bad565b610728565b005b610221600480360381019061021c9190611dd3565b610748565b60405161022e91906121c4565b60405180910390f35b610251600480360381019061024c9190611b40565b6107fa565b60405161025e91906123e3565b60405180910390f35b61026f6108b2565b60405161027c9190612261565b60405180910390f35b61029f600480360381019061029a9190611c83565b610944565b005b6102bb60048036038101906102b69190611c00565b61095a565b005b6102d760048036038101906102d29190611dd3565b6109bc565b6040516102e49190612261565b60405180910390f35b61030760048036038101906103029190611d5d565b610c06565b005b610323600480360381019061031e9190611dd3565b610c83565b6040516103309190612246565b60405180910390f35b610353600480360381019061034e9190611b6d565b610c9b565b604051610360919061222b565b60405180910390f35b60007f80ac58cd000000000000000000000000000000000000000000000000000000007bffffffffffffffffffffffffffffffffffffffffffffffffffffffff1916827bffffffffffffffffffffffffffffffffffffffffffffffffffffffff1916148061043457507f5b5e139f000000000000000000000000000000000000000000000000000000007bffffffffffffffffffffffffffffffffffffffffffffffffffffffff1916827bffffffffffffffffffffffffffffffffffffffffffffffffffffffff1916145b80610444575061044382610ea8565b5b9050919050565b60606000805461045a906126b3565b80601f0160208091040260200160405190810160405280929190818152602001828054610486906126b3565b80156104d35780601f106104a8576101008083540402835291602001916104d3565b820191906000526020600020905b8154815290600101906020018083116104b657829003601f168201915b5050505050905090565b60006104e882610f12565b6004600083815260200190815260200160002060009054906101000a900473ffffffffffffffffffffffffffffffffffffffff169050919050565b600061052e82610748565b90508073ffffffffffffffffffffffffffffffffffffffff168373ffffffffffffffffffffffffffffffffffffffff16141561059f576040517f08c379a0000000000000000000000000000000000000000000000000000000008152600401610596906123a3565b60405180910390fd5b8073ffffffffffffffffffffffffffffffffffffffff166105be610f5d565b73ffffffffffffffffffffffffffffffffffffffff1614806105ed57506105ec816105e7610f5d565b610c9b565b5b61062c576040517f08c379a000000000000000000000000000000000000000000000000000000000815260040161062390612343565b60405180910390fd5b6106368383610f65565b505050565b61064c610646610f5d565b8261101e565b61068b576040517f08c379a0000000000000000000000000000000000000000000000000000000008152600401610682906123c3565b60405180910390fd5b6106968383836110b3565b505050565b606060006106c7836040516020016106b39190612144565b604051602081830303815290604052610d2f565b90506040518060400160405280601a81526020017f646174613a696d6167652f7376672b786d6c3b6261736536342c0000000000008152508160405160200161071192919061215b565b604051602081830303815290604052915050919050565b6107438383836040518060200160405280600081525061095a565b505050565b6000806002600084815260200190815260200160002060009054906101000a900473ffffffffffffffffffffffffffffffffffffffff169050600073ffffffffffffffffffffffffffffffffffffffff168173ffffffffffffffffffffffffffffffffffffffff1614156107f1576040517f08c379a00000000000000000000000000000000000000000000000000000000081526004016107e890612383565b60405180910390fd5b80915050919050565b60008073ffffffffffffffffffffffffffffffffffffffff168273ffffffffffffffffffffffffffffffffffffffff16141561086b576040517f08c379a000000000000000000000000000000000000000000000000000000000815260040161086290612323565b60405180910390fd5b600360008373ffffffffffffffffffffffffffffffffffffffff1673ffffffffffffffffffffffffffffffffffffffff168152602001908152602001600020549050919050565b6060600180546108c1906126b3565b80601f01602080910402602001604051908101604052809291908181526020018280546108ed906126b3565b801561093a5780601f1061090f5761010080835404028352916020019161093a565b820191906000526020600020905b81548152906001019060200180831161091d57829003601f168201915b5050505050905090565b61095661094f610f5d565b838361131a565b5050565b61096b610965610f5d565b8361101e565b6109aa576040517f08c379a00000000000000000000000000000000000000000000000000000000081526004016109a1906123c3565b60405180910390fd5b6109b684848484611487565b50505050565b60606109c782610f12565b60007f000000000000000000000000000000000000000000000000000000000000000073ffffffffffffffffffffffffffffffffffffffff1663feaf968c6040518163ffffffff1660e01b815260040160a06040518083038186803b158015610a2f57600080fd5b505afa158015610a43573d6000803e3d6000fd5b505050506040513d601f19601f82011682018060405250810190610a679190611e00565b505050915050600060078054610a7c906126b3565b80601f0160208091040260200160405190810160405280929190818152602001828054610aa8906126b3565b8015610af55780601f10610aca57610100808354040283529160200191610af5565b820191906000526020600020905b815481529060010190602001808311610ad857829003601f168201915b5050505050905060096000858152602001908152602001600020548212610ba45760088054610b23906126b3565b80601f0160208091040260200160405190810160405280929190818152602001828054610b4f906126b3565b8015610b9c5780601f10610b7157610100808354040283529160200191610b9c565b820191906000526020600020905b815481529060010190602001808311610b7f57829003601f168201915b505050505090505b610bac6114e3565b610bdd610bb761044b565b83604051602001610bc992919061217f565b604051602081830303815290604052610d2f565b604051602001610bee92919061215b565b60405160208183030381529060405292505050919050565b8060096000600654815260200190815260200160002081905550600160066000828254610c3391906124c8565b92505081905550610c4633600654611520565b6006547f882d3b5a729a8bb95cf6c0083c99b42ecd9637123d4425bd7b768877fd8af8b082604051610c789190612246565b60405180910390a250565b60096020528060005260406000206000915090505481565b6000600560008473ffffffffffffffffffffffffffffffffffffffff1673ffffffffffffffffffffffffffffffffffffffff16815260200190815260200160002060008373ffffffffffffffffffffffffffffffffffffffff1673ffffffffffffffffffffffffffffffffffffffff16815260200190815260200160002060009054906101000a900460ff16905092915050565b6060600082511415610d5257604051806020016040528060008152509050610ea3565b6000604051806060016040528060408152602001612bf06040913990506000600360028551610d8191906124c8565b610d8b919061251e565b6004610d97919061254f565b90506000602082610da891906124c8565b67ffffffffffffffff811115610dc157610dc06127a3565b5b6040519080825280601f01601f191660200182016040528015610df35781602001600182028036833780820191505090505b509050818152600183018586518101602084015b81831015610e62576003830192508251603f8160121c168501518253600182019150603f81600c1c168501518253600182019150603f8160061c168501518253600182019150603f8116850151825360018201915050610e07565b600389510660018114610e7c5760028114610e8c57610e97565b613d3d60f01b6002830352610e97565b603d60f81b60018303525b50505050508093505050505b919050565b60007f01ffc9a7000000000000000000000000000000000000000000000000000000007bffffffffffffffffffffffffffffffffffffffffffffffffffffffff1916827bffffffffffffffffffffffffffffffffffffffffffffffffffffffff1916149050919050565b610f1b8161153e565b610f5a576040517f08c379a0000000000000000000000000000000000000000000000000000000008152600401610f5190612383565b60405180910390fd5b50565b600033905090565b816004600083815260200190815260200160002060006101000a81548173ffffffffffffffffffffffffffffffffffffffff021916908373ffffffffffffffffffffffffffffffffffffffff160217905550808273ffffffffffffffffffffffffffffffffffffffff16610fd883610748565b73ffffffffffffffffffffffffffffffffffffffff167f8c5be1e5ebec7d5bd14f71427d1e84f3dd0314c0f7b2291e5b200ac8c7c3b92560405160405180910390a45050565b60008061102a83610748565b90508073ffffffffffffffffffffffffffffffffffffffff168473ffffffffffffffffffffffffffffffffffffffff16148061106c575061106b8185610c9b565b5b806110aa57508373ffffffffffffffffffffffffffffffffffffffff16611092846104dd565b73ffffffffffffffffffffffffffffffffffffffff16145b91505092915050565b8273ffffffffffffffffffffffffffffffffffffffff166110d382610748565b73ffffffffffffffffffffffffffffffffffffffff1614611129576040517f08c379a0000000000000000000000000000000000000000000000000000000008152600401611120906122a3565b60405180910390fd5b600073ffffffffffffffffffffffffffffffffffffffff168273ffffffffffffffffffffffffffffffffffffffff161415611199576040517f08c379a0000000000000000000000000000000000000000000000000000000008152600401611190906122e3565b60405180910390fd5b6111a48383836115aa565b6111af600082610f65565b6001600360008573ffffffffffffffffffffffffffffffffffffffff1673ffffffffffffffffffffffffffffffffffffffff16815260200190815260200160002060008282546111ff91906125a9565b925050819055506001600360008473ffffffffffffffffffffffffffffffffffffffff1673ffffffffffffffffffffffffffffffffffffffff168152602001908152602001600020600082825461125691906124c8565b92505081905550816002600083815260200190815260200160002060006101000a81548173ffffffffffffffffffffffffffffffffffffffff021916908373ffffffffffffffffffffffffffffffffffffffff160217905550808273ffffffffffffffffffffffffffffffffffffffff168473ffffffffffffffffffffffffffffffffffffffff167fddf252ad1be2c89b69c2b068fc378daa952ba7f163c4a11628f55a4df523b3ef60405160405180910390a46113158383836115af565b505050565b8173ffffffffffffffffffffffffffffffffffffffff168373ffffffffffffffffffffffffffffffffffffffff161415611389576040517f08c379a000000000000000000000000000000000000000000000000000000000815260040161138090612303565b60405180910390fd5b80600560008573ffffffffffffffffffffffffffffffffffffffff1673ffffffffffffffffffffffffffffffffffffffff16815260200190815260200160002060008473ffffffffffffffffffffffffffffffffffffffff1673ffffffffffffffffffffffffffffffffffffffff16815260200190815260200160002060006101000a81548160ff0219169083151502179055508173ffffffffffffffffffffffffffffffffffffffff168373ffffffffffffffffffffffffffffffffffffffff167f17307eab39ab6107e8899845ad3d59bd9653f200f220920489ca2b5937696c318360405161147a919061222b565b60405180910390a3505050565b6114928484846110b3565b61149e848484846115b4565b6114dd576040517f08c379a00000000000000000000000000000000000000000000000000000000081526004016114d490612283565b60405180910390fd5b50505050565b60606040518060400160405280601d81526020017f646174613a6170706c69636174696f6e2f6a736f6e3b6261736536342c000000815250905090565b61153a82826040518060200160405280600081525061174b565b5050565b60008073ffffffffffffffffffffffffffffffffffffffff166002600084815260200190815260200160002060009054906101000a900473ffffffffffffffffffffffffffffffffffffffff1673ffffffffffffffffffffffffffffffffffffffff1614159050919050565b505050565b505050565b60006115d58473ffffffffffffffffffffffffffffffffffffffff166117a6565b1561173e578373ffffffffffffffffffffffffffffffffffffffff1663150b7a026115fe610f5d565b8786866040518563ffffffff1660e01b815260040161162094939291906121df565b602060405180830381600087803b15801561163a57600080fd5b505af192505050801561166b57506040513d601f19601f820116820180604052508101906116689190611d30565b60015b6116ee573d806000811461169b576040519150601f19603f3d011682016040523d82523d6000602084013e6116a0565b606091505b506000815114156116e6576040517f08c379a00000000000000000000000000000000000000000000000000000000081526004016116dd90612283565b60405180910390fd5b805181602001fd5b63150b7a0260e01b7bffffffffffffffffffffffffffffffffffffffffffffffffffffffff1916817bffffffffffffffffffffffffffffffffffffffffffffffffffffffff191614915050611743565b600190505b949350505050565b61175583836117c9565b61176260008484846115b4565b6117a1576040517f08c379a000000000000000000000000000000000000000000000000000000000815260040161179890612283565b60405180910390fd5b505050565b6000808273ffffffffffffffffffffffffffffffffffffffff163b119050919050565b600073ffffffffffffffffffffffffffffffffffffffff168273ffffffffffffffffffffffffffffffffffffffff161415611839576040517f08c379a000000000000000000000000000000000000000000000000000000000815260040161183090612363565b60405180910390fd5b6118428161153e565b15611882576040517f08c379a0000000000000000000000000000000000000000000000000000000008152600401611879906122c3565b60405180910390fd5b61188e600083836115aa565b6001600360008473ffffffffffffffffffffffffffffffffffffffff1673ffffffffffffffffffffffffffffffffffffffff16815260200190815260200160002060008282546118de91906124c8565b92505081905550816002600083815260200190815260200160002060006101000a81548173ffffffffffffffffffffffffffffffffffffffff021916908373ffffffffffffffffffffffffffffffffffffffff160217905550808273ffffffffffffffffffffffffffffffffffffffff16600073ffffffffffffffffffffffffffffffffffffffff167fddf252ad1be2c89b69c2b068fc378daa952ba7f163c4a11628f55a4df523b3ef60405160405180910390a461199f600083836115af565b5050565b60006119b66119b184612423565b6123fe565b9050828152602081018484840111156119d2576119d16127d7565b5b6119dd848285612671565b509392505050565b60006119f86119f384612454565b6123fe565b905082815260208101848484011115611a1457611a136127d7565b5b611a1f848285612671565b509392505050565b600081359050611a3681612b65565b92915050565b600081359050611a4b81612b7c565b92915050565b600081359050611a6081612b93565b92915050565b600081519050611a7581612b93565b92915050565b600082601f830112611a9057611a8f6127d2565b5b8135611aa08482602086016119a3565b91505092915050565b600081359050611ab881612baa565b92915050565b600081519050611acd81612baa565b92915050565b600082601f830112611ae857611ae76127d2565b5b8135611af88482602086016119e5565b91505092915050565b600081359050611b1081612bc1565b92915050565b600081519050611b2581612bc1565b92915050565b600081519050611b3a81612bd8565b92915050565b600060208284031215611b5657611b556127e1565b5b6000611b6484828501611a27565b91505092915050565b60008060408385031215611b8457611b836127e1565b5b6000611b9285828601611a27565b9250506020611ba385828601611a27565b9150509250929050565b600080600060608486031215611bc657611bc56127e1565b5b6000611bd486828701611a27565b9350506020611be586828701611a27565b9250506040611bf686828701611b01565b9150509250925092565b60008060008060808587031215611c1a57611c196127e1565b5b6000611c2887828801611a27565b9450506020611c3987828801611a27565b9350506040611c4a87828801611b01565b925050606085013567ffffffffffffffff811115611c6b57611c6a6127dc565b5b611c7787828801611a7b565b91505092959194509250565b60008060408385031215611c9a57611c996127e1565b5b6000611ca885828601611a27565b9250506020611cb985828601611a3c565b9150509250929050565b60008060408385031215611cda57611cd96127e1565b5b6000611ce885828601611a27565b9250506020611cf985828601611b01565b9150509250929050565b600060208284031215611d1957611d186127e1565b5b6000611d2784828501611a51565b91505092915050565b600060208284031215611d4657611d456127e1565b5b6000611d5484828501611a66565b91505092915050565b600060208284031215611d7357611d726127e1565b5b6000611d8184828501611aa9565b91505092915050565b600060208284031215611da057611d9f6127e1565b5b600082013567ffffffffffffffff811115611dbe57611dbd6127dc565b5b611dca84828501611ad3565b91505092915050565b600060208284031215611de957611de86127e1565b5b6000611df784828501611b01565b91505092915050565b600080600080600060a08688031215611e1c57611e1b6127e1565b5b6000611e2a88828901611b2b565b9550506020611e3b88828901611abe565b9450506040611e4c88828901611b16565b9350506060611e5d88828901611b16565b9250506080611e6e88828901611b2b565b9150509295509295909350565b611e84816125dd565b82525050565b611e93816125ef565b82525050565b6000611ea482612485565b611eae818561249b565b9350611ebe818560208601612680565b611ec7816127e6565b840191505092915050565b611edb81612627565b82525050565b6000611eec82612490565b611ef681856124ac565b9350611f06818560208601612680565b611f0f816127e6565b840191505092915050565b6000611f2582612490565b611f2f81856124bd565b9350611f3f818560208601612680565b80840191505092915050565b6000611f586032836124ac565b9150611f63826127f7565b604082019050919050565b6000611f7b6025836124ac565b9150611f8682612846565b604082019050919050565b6000611f9e601c836124ac565b9150611fa982612895565b602082019050919050565b6000611fc16024836124ac565b9150611fcc826128be565b604082019050919050565b6000611fe46019836124ac565b9150611fef8261290d565b602082019050919050565b60006120076029836124ac565b915061201282612936565b604082019050919050565b600061202a6032836124bd565b915061203582612985565b603282019050919050565b600061204d6002836124bd565b9150612058826129d4565b600282019050919050565b6000612070603e836124ac565b915061207b826129fd565b604082019050919050565b60006120936020836124ac565b915061209e82612a4c565b602082019050919050565b60006120b6600a836124bd565b91506120c182612a75565b600a82019050919050565b60006120d96018836124ac565b91506120e482612a9e565b602082019050919050565b60006120fc6021836124ac565b915061210782612ac7565b604082019050919050565b600061211f602e836124ac565b915061212a82612b16565b604082019050919050565b61213e81612651565b82525050565b60006121508284611f1a565b915081905092915050565b60006121678285611f1a565b91506121738284611f1a565b91508190509392505050565b600061218a826120a9565b91506121968285611f1a565b91506121a18261201d565b91506121ad8284611f1a565b91506121b882612040565b91508190509392505050565b60006020820190506121d96000830184611e7b565b92915050565b60006080820190506121f46000830187611e7b565b6122016020830186611e7b565b61220e6040830185612135565b81810360608301526122208184611e99565b905095945050505050565b60006020820190506122406000830184611e8a565b92915050565b600060208201905061225b6000830184611ed2565b92915050565b6000602082019050818103600083015261227b8184611ee1565b905092915050565b6000602082019050818103600083015261229c81611f4b565b9050919050565b600060208201905081810360008301526122bc81611f6e565b9050919050565b600060208201905081810360008301526122dc81611f91565b9050919050565b600060208201905081810360008301526122fc81611fb4565b9050919050565b6000602082019050818103600083015261231c81611fd7565b9050919050565b6000602082019050818103600083015261233c81611ffa565b9050919050565b6000602082019050818103600083015261235c81612063565b9050919050565b6000602082019050818103600083015261237c81612086565b9050919050565b6000602082019050818103600083015261239c816120cc565b9050919050565b600060208201905081810360008301526123bc816120ef565b9050919050565b600060208201905081810360008301526123dc81612112565b9050919050565b60006020820190506123f86000830184612135565b92915050565b6000612408612419565b905061241482826126e5565b919050565b6000604051905090565b600067ffffffffffffffff82111561243e5761243d6127a3565b5b612447826127e6565b9050602081019050919050565b600067ffffffffffffffff82111561246f5761246e6127a3565b5b612478826127e6565b9050602081019050919050565b600081519050919050565b600081519050919050565b600082825260208201905092915050565b600082825260208201905092915050565b600081905092915050565b60006124d382612651565b91506124de83612651565b9250827fffffffffffffffffffffffffffffffffffffffffffffffffffffffffffffffff0382111561251357612512612716565b5b828201905092915050565b600061252982612651565b915061253483612651565b92508261254457612543612745565b5b828204905092915050565b600061255a82612651565b915061256583612651565b9250817fffffffffffffffffffffffffffffffffffffffffffffffffffffffffffffffff048311821515161561259e5761259d612716565b5b828202905092915050565b60006125b482612651565b91506125bf83612651565b9250828210156125d2576125d1612716565b5b828203905092915050565b60006125e882612631565b9050919050565b60008115159050919050565b60007fffffffff0000000000000000000000000000000000000000000000000000000082169050919050565b6000819050919050565b600073ffffffffffffffffffffffffffffffffffffffff82169050919050565b6000819050919050565b600069ffffffffffffffffffff82169050919050565b82818337600083830152505050565b60005b8381101561269e578082015181840152602081019050612683565b838111156126ad576000848401525b50505050565b600060028204905060018216806126cb57607f821691505b602082108114156126df576126de612774565b5b50919050565b6126ee826127e6565b810181811067ffffffffffffffff8211171561270d5761270c6127a3565b5b80604052505050565b7f4e487b7100000000000000000000000000000000000000000000000000000000600052601160045260246000fd5b7f4e487b7100000000000000000000000000000000000000000000000000000000600052601260045260246000fd5b7f4e487b7100000000000000000000000000000000000000000000000000000000600052602260045260246000fd5b7f4e487b7100000000000000000000000000000000000000000000000000000000600052604160045260246000fd5b600080fd5b600080fd5b600080fd5b600080fd5b6000601f19601f8301169050919050565b7f4552433732313a207472616e7366657220746f206e6f6e20455243373231526560008201527f63656976657220696d706c656d656e7465720000000000000000000000000000602082015250565b7f4552433732313a207472616e736665722066726f6d20696e636f72726563742060008201527f6f776e6572000000000000000000000000000000000000000000000000000000602082015250565b7f4552433732313a20746f6b656e20616c7265616479206d696e74656400000000600082015250565b7f4552433732313a207472616e7366657220746f20746865207a65726f2061646460008201527f7265737300000000000000000000000000000000000000000000000000000000602082015250565b7f4552433732313a20617070726f766520746f2063616c6c657200000000000000600082015250565b7f4552433732313a2061646472657373207a65726f206973206e6f74206120766160008201527f6c6964206f776e65720000000000000000000000000000000000000000000000602082015250565b7f222c226465736372697074696f6e223a2022536f6d652064796e616d6963205360008201527f5647204e4654222c2022696d616765223a220000000000000000000000000000602082015250565b7f227d000000000000000000000000000000000000000000000000000000000000600082015250565b7f4552433732313a20617070726f76652063616c6c6572206973206e6f7420746f60008201527f6b656e206f776e6572206e6f7220617070726f76656420666f7220616c6c0000602082015250565b7f4552433732313a206d696e7420746f20746865207a65726f2061646472657373600082015250565b7f7b226e616d65223a202200000000000000000000000000000000000000000000600082015250565b7f4552433732313a20696e76616c696420746f6b656e2049440000000000000000600082015250565b7f4552433732313a20617070726f76616c20746f2063757272656e74206f776e6560008201527f7200000000000000000000000000000000000000000000000000000000000000602082015250565b7f4552433732313a2063616c6c6572206973206e6f7420746f6b656e206f776e6560008201527f72206e6f7220617070726f766564000000000000000000000000000000000000602082015250565b612b6e816125dd565b8114612b7957600080fd5b50565b612b85816125ef565b8114612b9057600080fd5b50565b612b9c816125fb565b8114612ba757600080fd5b50565b612bb381612627565b8114612bbe57600080fd5b50565b612bca81612651565b8114612bd557600080fd5b50565b612be18161265b565b8114612bec57600080fd5b5056fe4142434445464748494a4b4c4d4e4f505152535455565758595a6162636465666768696a6b6c6d6e6f707172737475767778797a303132333435363738392b2fa2646970667358221220743a9bdb45747b6037affcb1195995be2b291c349c278ca65c4e93cc6e9c746864736f6c634300080700334142434445464748494a4b4c4d4e4f505152535455565758595a6162636465666768696a6b6c6d6e6f707172737475767778797a303132333435363738392b2f",
  "devdoc": {
    "kind": "dev",
    "methods": {
      "approve(address,uint256)": {
        "details": "See {IERC721-approve}."
      },
      "balanceOf(address)": {
        "details": "See {IERC721-balanceOf}."
      },
      "getApproved(uint256)": {
        "details": "See {IERC721-getApproved}."
      },
      "isApprovedForAll(address,address)": {
        "details": "See {IERC721-isApprovedForAll}."
      },
      "name()": {
        "details": "See {IERC721Metadata-name}."
      },
      "ownerOf(uint256)": {
        "details": "See {IERC721-ownerOf}."
      },
      "safeTransferFrom(address,address,uint256)": {
        "details": "See {IERC721-safeTransferFrom}."
      },
      "safeTransferFrom(address,address,uint256,bytes)": {
        "details": "See {IERC721-safeTransferFrom}."
      },
      "setApprovalForAll(address,bool)": {
        "details": "See {IERC721-setApprovalForAll}."
      },
      "supportsInterface(bytes4)": {
        "details": "See {IERC165-supportsInterface}."
      },
      "symbol()": {
        "details": "See {IERC721Metadata-symbol}."
      },
      "transferFrom(address,address,uint256)": {
        "details": "See {IERC721-transferFrom}."
      }
    },
    "version": 1
  },
  "userdoc": {
    "kind": "user",
    "methods": {
      "tokenURI(uint256)": {
        "notice": "'{\"name\": \"name()\", \"description\": \"Some desctiption\", \"image\": ImsgeURI, \"attributes\": [{\"trait\": \"Cuteness\", \"value\": 100}]}'"
      }
    },
    "version": 1
  },
  "storageLayout": {
    "storage": [
      {
        "astId": 71,
        "contract": "contracts/DynamicNFT.sol:DynamicSVGNFT",
        "label": "_name",
        "offset": 0,
        "slot": "0",
        "type": "t_string_storage"
      },
      {
        "astId": 73,
        "contract": "contracts/DynamicNFT.sol:DynamicSVGNFT",
        "label": "_symbol",
        "offset": 0,
        "slot": "1",
        "type": "t_string_storage"
      },
      {
        "astId": 77,
        "contract": "contracts/DynamicNFT.sol:DynamicSVGNFT",
        "label": "_owners",
        "offset": 0,
        "slot": "2",
        "type": "t_mapping(t_uint256,t_address)"
      },
      {
        "astId": 81,
        "contract": "contracts/DynamicNFT.sol:DynamicSVGNFT",
        "label": "_balances",
        "offset": 0,
        "slot": "3",
        "type": "t_mapping(t_address,t_uint256)"
      },
      {
        "astId": 85,
        "contract": "contracts/DynamicNFT.sol:DynamicSVGNFT",
        "label": "_tokenApprovals",
        "offset": 0,
        "slot": "4",
        "type": "t_mapping(t_uint256,t_address)"
      },
      {
        "astId": 91,
        "contract": "contracts/DynamicNFT.sol:DynamicSVGNFT",
        "label": "_operatorApprovals",
        "offset": 0,
        "slot": "5",
        "type": "t_mapping(t_address,t_mapping(t_address,t_bool))"
      },
      {
        "astId": 1785,
        "contract": "contracts/DynamicNFT.sol:DynamicSVGNFT",
        "label": "s_tokenCounter",
        "offset": 0,
        "slot": "6",
        "type": "t_uint256"
      },
      {
        "astId": 1787,
        "contract": "contracts/DynamicNFT.sol:DynamicSVGNFT",
        "label": "i_lowImageURI",
        "offset": 0,
        "slot": "7",
        "type": "t_string_storage"
      },
      {
        "astId": 1789,
        "contract": "contracts/DynamicNFT.sol:DynamicSVGNFT",
        "label": "i_highImageURI",
        "offset": 0,
        "slot": "8",
        "type": "t_string_storage"
      },
      {
        "astId": 1796,
        "contract": "contracts/DynamicNFT.sol:DynamicSVGNFT",
        "label": "s_tokenIdToHighValue",
        "offset": 0,
        "slot": "9",
        "type": "t_mapping(t_uint256,t_int256)"
      }
    ],
    "types": {
      "t_address": {
        "encoding": "inplace",
        "label": "address",
        "numberOfBytes": "20"
      },
      "t_bool": {
        "encoding": "inplace",
        "label": "bool",
        "numberOfBytes": "1"
      },
      "t_int256": {
        "encoding": "inplace",
        "label": "int256",
        "numberOfBytes": "32"
      },
      "t_mapping(t_address,t_bool)": {
        "encoding": "mapping",
        "key": "t_address",
        "label": "mapping(address => bool)",
        "numberOfBytes": "32",
        "value": "t_bool"
      },
      "t_mapping(t_address,t_mapping(t_address,t_bool))": {
        "encoding": "mapping",
        "key": "t_address",
        "label": "mapping(address => mapping(address => bool))",
        "numberOfBytes": "32",
        "value": "t_mapping(t_address,t_bool)"
      },
      "t_mapping(t_address,t_uint256)": {
        "encoding": "mapping",
        "key": "t_address",
        "label": "mapping(address => uint256)",
        "numberOfBytes": "32",
        "value": "t_uint256"
      },
      "t_mapping(t_uint256,t_address)": {
        "encoding": "mapping",
        "key": "t_uint256",
        "label": "mapping(uint256 => address)",
        "numberOfBytes": "32",
        "value": "t_address"
      },
      "t_mapping(t_uint256,t_int256)": {
        "encoding": "mapping",
        "key": "t_uint256",
        "label": "mapping(uint256 => int256)",
        "numberOfBytes": "32",
        "value": "t_int256"
      },
      "t_string_storage": {
        "encoding": "bytes",
        "label": "string",
        "numberOfBytes": "32"
      },
      "t_uint256": {
        "encoding": "inplace",
        "label": "uint256",
        "numberOfBytes": "32"
      }
    }
  }
}